:100000000C9434000C9451000C9451000C94510049
:100010000C9451000C9451000C9451000C9451001C
:100020000C9451000C9451000C9451000C9451000C
:100030000C9451000C9451000C9451000C945100FC
:100040000C9451000C9451000C94CD010C9451006F
:100050000C9451000C9451000C9451000C945100DC
:100060000C9451000C94510011241FBECFEFD8E026
:10007000DEBFCDBF11E0A0E0B1E0E4EFF6E002C0EA
:1000800005900D92AE3BB107D9F721E0AEEBB1E0A0
:1000900001C01D92A53CB207E1F70E9442010C94F9
:1000A00078030C9400000F931F93CF93DF938C0180
:1000B000EB018BE090E00E945002FC011183008371
:1000C000D783C6831382128215821482108681E040
:1000D0008187CF01DF91CF911F910F910895FC018E
:1000E0008085882361F08281938101969383828346
:1000F000268137818217930711F41382128284813B
:100100009581019695838483268137818217930791
:1001100011F41582148281E044815581228133815A
:100120004217530709F080E0808780E090E008954F
:10013000DC0119962C911997222359F018962C91CD
:100140001897222331F021E01A962C938FEF9FEF1E
:100150000895DC01ED91FC91119714962D913C913D
:100160001597E20FF31F60830E946F0080E090E01C
:100170000895FC01108612868281938101969383F3
:100180008283268137818217930711F413821282AA
:1001900080E090E00895CF93DC01ED91FC91119700
:1001A00012962D913C911397E20FF31FC0810E948C
:1001B000B9008C2FCF910895FC0180850895FC0132
:1001C00024813581828193812817390721F4908514
:1001D00081E0892702C080E090E08170089510924C
:1001E000B90088E48093B800089594EA9093BC0025
:1001F000ECEBF0E090819923ECF79091B900987FB7
:10020000983011F09031A1F48093BB0084E8809382
:10021000BC00ECEBF0E080818823ECF79091B90012
:10022000987F983139F081E0903429F480E0089586
:1002300081E0089580E0089584E98093BC00ECEBB0
:10024000F0E0808184FDFDCF08958093BB0084E8B9
:100250008093BC00ECEBF0E080818823ECF7909178
:10026000B900987F81E0983209F480E0089584E82D
:100270008093BC00ECEBF0E080818823ECF7809168
:10028000BB000895CF93DF9300D000D0CDB7DEB789
:100290000E9405020E94EF00E1ECF0E0808180689E
:1002A0008083789461E070E083E090E00E94340203
:1002B00063E070E00E9453009093BF018093BE0101
:1002C00021E0FC01218786E091E00E941E028091DE
:1002D000BE019091BF010E94DC008823C1F38DE133
:1002E00091E00E941E028E010F5F1F4F09C0809196
:1002F000BE019091BF010E94CB00F80181938F0154
:100300008091BE019091BF010E94DF00882379F3A4
:100310008981823571F588E391E00E941E028BE5A8
:1003200091E00E941E0280E20E9416028AE191E0A2
:100330000E941E0281E20E94F5008C838C8188233A
:1003400039F00E941C0189E691E00E941E02BFCF95
:100350000E9437018C830E941C0181E791E00E947A
:100360001E028C810E9416028AE191E00E941E0208
:10037000AECF873509F0ABCF85E891E00E941E0231
:1003800080E20E94F5008C838A810E9425018B8186
:100390000E9425010E941C019ACF1F920F920FB656
:1003A0000F9211242F933F934F935F936F937F93FB
:1003B0008F939F93AF93BF93EF93FF938091C6006A
:1003C0008093C0018091C0010E9416026091C0011B
:1003D0008091BE019091BF010E949800019621F486
:1003E0008CE991E00E941E02FF91EF91BF91AF91C5
:1003F0009F918F917F916F915F914F913F912F913D
:100400000F900FBE0F901F9018951092C50087E6B1
:100410008093C400E0ECF0E080818D7F808388E1F0
:100420008093C10086E08093C2000895E0ECF0E084
:10043000908195FFFDCF8093C60008950F931F9381
:10044000CF93FC018081882359F08F01C0E00E9486
:100450001602CF5FF801EC0FF11D80818111F7CFFB
:10046000CF911F910F9108950F931F93CF93DF9317
:10047000869F8001879F100D969F100D1124C80143
:100480000E945002EC01009729F0A80160E070E0A2
:100490000E947103CE01DF91CF911F910F910895BA
:1004A0000F931F93CF93DF938230910510F482E076
:1004B00090E0E091C301F091C40120E030E0A0E0C1
:1004C000B0E0309719F140815181028113814817C2
:1004D0005907C8F08417950769F4109731F0129600
:1004E0000C93129713961C9327C00093C30110938B
:1004F000C40122C02115310519F04217530718F421
:100500009A01BD01EF01DF01F801DBCF21153105B3
:10051000F9F0281B390B2430310580F48A819B8146
:100520006115710521F0FB019383828304C09093D0
:10053000C4018093C301FE01329644C0FE01E20F64
:10054000F31F8193919322503109398328833AC054
:100550002091C1013091C201232B41F4209102016D
:10056000309103013093C2012093C1012091000119
:10057000309101012115310541F42DB73EB740916D
:10058000040150910501241B350BE091C101F0914C
:10059000C201E217F307A0F42E1B3F0B28173907FF
:1005A00078F0AC014E5F5F4F2417350748F04E0FCF
:1005B0005F1F5093C2014093C1018193919302C088
:1005C000E0E0F0E0CF01DF91CF911F910F9108950E
:1005D000CF93DF93009709F481C0FC013297138217
:1005E0001282A091C301B091C401109781F42081BF
:1005F0003181820F931F2091C1013091C2012817D0
:10060000390751F5F093C201E093C10167C0ED01D4
:1006100020E030E0CE17DF0740F44A815B819E0185
:1006200041155105F1F0EA01F5CFD383C283408132
:100630005181840F951FC817D90759F48881998172
:10064000840F951F0296918380838A819B81938377
:1006500082832115310529F4F093C401E093C3018D
:100660003DC0E901FB83EA8349915991C40FD51F2D
:10067000EC17FD0761F480819181840F951F02962C
:10068000E90199838883828193819B838A83E0E057
:10069000F0E012968D919C911397009719F0FD014F
:1006A000DC01F7CF8D919C9111979D012E5F3F4FFB
:1006B000820F931F2091C1013091C2012817390781
:1006C00069F4309729F41092C4011092C30102C05A
:1006D00013821282B093C201A093C101DF91CF9126
:1006E0000895DC0101C06D9341505040E0F708953A
:0406F000F894FFCFAC
:1006F4000000C50120004932432D4D6173746572B9
:10070400206F6E6C696E652E2E2E0D0A003E3E61C2
:100714006C6C652064617461206F6E7476616E67C1
:10072400656E2E2E2E0A0D004C6565737665727A01
:100734006F656B2076657273747572656E206E6179
:10074400617220736C6176650D0A00736C61766565
:100754006164726573203D20004572726F720D0AE8
:1007640000776161726465206F6E7476616E67658F
:100774006E203A200053636872696A76656E206E53
:1007840061617220736C6176650D0A005061757A3F
:10079400656572207665727A656E64656E2E204298
:0E07A4007566666572203D20766F6C0A0D004A
:00000001FF
